{
  "contractName": "AuctionBox",
  "abi": [
    {
      "inputs": [],
      "payable": false,
      "stateMutability": "nonpayable",
      "type": "constructor"
    },
    {
      "constant": true,
      "inputs": [
        {
          "internalType": "uint256",
          "name": "",
          "type": "uint256"
        }
      ],
      "name": "auctions",
      "outputs": [
        {
          "internalType": "contract EnglishAuction",
          "name": "",
          "type": "address"
        }
      ],
      "payable": false,
      "stateMutability": "view",
      "type": "function"
    },
    {
      "constant": false,
      "inputs": [
        {
          "internalType": "contract ART_CONTRACT",
          "name": "_token",
          "type": "address"
        },
        {
          "internalType": "address payable",
          "name": "_beneficiary",
          "type": "address"
        },
        {
          "internalType": "uint256",
          "name": "_biddingTime",
          "type": "uint256"
        },
        {
          "internalType": "uint256",
          "name": "_startPrice",
          "type": "uint256"
        },
        {
          "internalType": "uint256",
          "name": "_share_id",
          "type": "uint256"
        },
        {
          "internalType": "uint256",
          "name": "_token_id",
          "type": "uint256"
        },
        {
          "internalType": "uint256",
          "name": "_step_min",
          "type": "uint256"
        },
        {
          "internalType": "uint256",
          "name": "_step_max",
          "type": "uint256"
        }
      ],
      "name": "createAuction",
      "outputs": [],
      "payable": false,
      "stateMutability": "nonpayable",
      "type": "function"
    },
    {
      "constant": true,
      "inputs": [],
      "name": "returnAllAuctions",
      "outputs": [
        {
          "internalType": "contract EnglishAuction[]",
          "name": "",
          "type": "address[]"
        }
      ],
      "payable": false,
      "stateMutability": "view",
      "type": "function"
    }
  ],
  "bytecode": "0x608060405234801561001057600080fd5b5033600160006101000a81548173ffffffffffffffffffffffffffffffffffffffff021916908373ffffffffffffffffffffffffffffffffffffffff160217905550611916806100616000396000f3fe608060405234801561001057600080fd5b50600436106100415760003560e01c8063571a26a01461004657806399cd7883146100b4578063d1f28df614610155575b600080fd5b6100726004803603602081101561005c57600080fd5b81019080803590602001909291905050506101b4565b604051808273ffffffffffffffffffffffffffffffffffffffff1673ffffffffffffffffffffffffffffffffffffffff16815260200191505060405180910390f35b61015360048036036101008110156100cb57600080fd5b81019080803573ffffffffffffffffffffffffffffffffffffffff169060200190929190803573ffffffffffffffffffffffffffffffffffffffff1690602001909291908035906020019092919080359060200190929190803590602001909291908035906020019092919080359060200190929190803590602001909291905050506101f0565b005b61015d6103b7565b6040518080602001828103825283818151815260200191508051906020019060200280838360005b838110156101a0578082015181840152602081019050610185565b505050509050019250505060405180910390f35b600281815481106101c157fe5b906000526020600020016000915054906101000a900473ffffffffffffffffffffffffffffffffffffffff1681565b600160009054906101000a900473ffffffffffffffffffffffffffffffffffffffff1673ffffffffffffffffffffffffffffffffffffffff163373ffffffffffffffffffffffffffffffffffffffff161461024a57600080fd5b60008833888a898989898960405161026190610445565b808a73ffffffffffffffffffffffffffffffffffffffff1673ffffffffffffffffffffffffffffffffffffffff1681526020018973ffffffffffffffffffffffffffffffffffffffff1673ffffffffffffffffffffffffffffffffffffffff1681526020018881526020018773ffffffffffffffffffffffffffffffffffffffff1673ffffffffffffffffffffffffffffffffffffffff1681526020018681526020018581526020018481526020018381526020018281526020019950505050505050505050604051809103906000f080158015610343573d6000803e3d6000fd5b50905060028190806001815401808255809150509060018203906000526020600020016000909192909190916101000a81548173ffffffffffffffffffffffffffffffffffffffff021916908373ffffffffffffffffffffffffffffffffffffffff16021790555050505050505050505050565b6060600280548060200260200160405190810160405280929190818152602001828054801561043b57602002820191906000526020600020905b8160009054906101000a900473ffffffffffffffffffffffffffffffffffffffff1673ffffffffffffffffffffffffffffffffffffffff16815260200190600101908083116103f1575b5050505050905090565b61148f806104538339019056fe608060405234801561001057600080fd5b5060405161148f38038061148f833981810160405261012081101561003457600080fd5b8101908080519060200190929190805190602001909291908051906020019092919080519060200190929190805190602001909291908051906020019092919080519060200190929190805190602001909291908051906020019092919050505088600260006101000a81548173ffffffffffffffffffffffffffffffffffffffff021916908373ffffffffffffffffffffffffffffffffffffffff160217905550856000806101000a81548173ffffffffffffffffffffffffffffffffffffffff021916908373ffffffffffffffffffffffffffffffffffffffff1602179055508642016001819055508460068190555087600360006101000a81548173ffffffffffffffffffffffffffffffffffffffff021916908373ffffffffffffffffffffffffffffffffffffffff16021790555083600c8190555082600d8190555081600781905550806008819055505050505050505050506112f48061019b6000396000f3fe6080604052600436106100f35760003560e01c8063617687e31161008a578063d566813111610059578063d5668131146103a2578063d57bde79146103cd578063d5d210a9146103f8578063f1a9af8914610423576100f3565b8063617687e31461028957806385b01da0146102ee57806391f9015714610319578063d3a4a53e14610370576100f3565b80633ccfd60b116100c65780633ccfd60b1461019f57806348cb6b77146101ce5780634b449cba146101f957806350a43f6114610224576100f3565b80631998aeef146100f85780632452cd30146101025780632a24f46c1461013157806338af3eed14610148575b600080fd5b61010061044e565b005b34801561010e57600080fd5b50610117610b04565b604051808215151515815260200191505060405180910390f35b34801561013d57600080fd5b50610146610b17565b005b34801561015457600080fd5b5061015d610e87565b604051808273ffffffffffffffffffffffffffffffffffffffff1673ffffffffffffffffffffffffffffffffffffffff16815260200191505060405180910390f35b3480156101ab57600080fd5b506101b4610eac565b604051808215151515815260200191505060405180910390f35b3480156101da57600080fd5b506101e36110f3565b6040518082815260200191505060405180910390f35b34801561020557600080fd5b5061020e6110f9565b6040518082815260200191505060405180910390f35b34801561023057600080fd5b506102736004803603602081101561024757600080fd5b81019080803573ffffffffffffffffffffffffffffffffffffffff1690602001909291905050506110ff565b6040518082815260200191505060405180910390f35b34801561029557600080fd5b506102d8600480360360208110156102ac57600080fd5b81019080803573ffffffffffffffffffffffffffffffffffffffff169060200190929190505050611148565b6040518082815260200191505060405180910390f35b3480156102fa57600080fd5b50610303611160565b6040518082815260200191505060405180910390f35b34801561032557600080fd5b5061032e611166565b604051808273ffffffffffffffffffffffffffffffffffffffff1673ffffffffffffffffffffffffffffffffffffffff16815260200191505060405180910390f35b34801561037c57600080fd5b5061038561118c565b604051808381526020018281526020019250505060405180910390f35b3480156103ae57600080fd5b506103b761121a565b6040518082815260200191505060405180910390f35b3480156103d957600080fd5b506103e2611220565b6040518082815260200191505060405180910390f35b34801561040457600080fd5b5061040d611226565b6040518082815260200191505060405180910390f35b34801561042f57600080fd5b5061043861122c565b6040518082815260200191505060405180910390f35b600260009054906101000a900473ffffffffffffffffffffffffffffffffffffffff1673ffffffffffffffffffffffffffffffffffffffff1663a1cb581f600d546040518263ffffffff1660e01b81526004018082815260200191505060206040518083038186803b1580156104c357600080fd5b505afa1580156104d7573d6000803e3d6000fd5b505050506040513d60208110156104ed57600080fd5b8101908080519060200190929190505050610570576040517f08c379a00000000000000000000000000000000000000000000000000000000081526004018080602001828103825260138152602001807f546f6b656e20646f65736e27742065786973740000000000000000000000000081525060200191505060405180910390fd5b6001544211156105e8576040517f08c379a00000000000000000000000000000000000000000000000000000000081526004018080602001828103825260168152602001807f41756374696f6e20616c726561647920656e6465642e0000000000000000000081525060200191505060405180910390fd5b600460009054906101000a900473ffffffffffffffffffffffffffffffffffffffff1673ffffffffffffffffffffffffffffffffffffffff163373ffffffffffffffffffffffffffffffffffffffff16141561068f576040517f08c379a00000000000000000000000000000000000000000000000000000000081526004018080602001828103825260218152602001806112336021913960400191505060405180910390fd5b600654600a60003373ffffffffffffffffffffffffffffffffffffffff1673ffffffffffffffffffffffffffffffffffffffff16815260200190815260200160002054340110156106df57600080fd5b6000806106ea61118c565b91509150600060055414156107e45781600a60003373ffffffffffffffffffffffffffffffffffffffff1673ffffffffffffffffffffffffffffffffffffffff16815260200190815260200160002054340111801561078a575080600a60003373ffffffffffffffffffffffffffffffffffffffff1673ffffffffffffffffffffffffffffffffffffffff16815260200190815260200160002054340111155b6107df576040517f08c379a00000000000000000000000000000000000000000000000000000000081526004018080602001828103825260288152602001806112776028913960400191505060405180910390fd5b6108cb565b81600a60003373ffffffffffffffffffffffffffffffffffffffff1673ffffffffffffffffffffffffffffffffffffffff168152602001908152602001600020543401118015610875575080600a60003373ffffffffffffffffffffffffffffffffffffffff1673ffffffffffffffffffffffffffffffffffffffff16815260200190815260200160002054340111155b6108ca576040517f08c379a000000000000000000000000000000000000000000000000000000000815260040180806020018281038252602181526020018061129f6021913960400191505060405180910390fd5b5b60006005541461099d57600a6000600460009054906101000a900473ffffffffffffffffffffffffffffffffffffffff1673ffffffffffffffffffffffffffffffffffffffff1673ffffffffffffffffffffffffffffffffffffffff1681526020019081526020016000205460096000600460009054906101000a900473ffffffffffffffffffffffffffffffffffffffff1673ffffffffffffffffffffffffffffffffffffffff1673ffffffffffffffffffffffffffffffffffffffff168152602001908152602001600020819055505b33600460006101000a81548173ffffffffffffffffffffffffffffffffffffffff021916908373ffffffffffffffffffffffffffffffffffffffff16021790555034600a6000600460009054906101000a900473ffffffffffffffffffffffffffffffffffffffff1673ffffffffffffffffffffffffffffffffffffffff1673ffffffffffffffffffffffffffffffffffffffff168152602001908152602001600020540160058190555034600a60003373ffffffffffffffffffffffffffffffffffffffff1673ffffffffffffffffffffffffffffffffffffffff168152602001908152602001600020600082825401925050819055507ff4757a49b326036464bec6fe419a4ae38c8a02ce3e68bf0809674f6aab8ad3003334604051808373ffffffffffffffffffffffffffffffffffffffff1673ffffffffffffffffffffffffffffffffffffffff1681526020018281526020019250505060405180910390a15050565b600b60009054906101000a900460ff1681565b600360009054906101000a900473ffffffffffffffffffffffffffffffffffffffff1673ffffffffffffffffffffffffffffffffffffffff163373ffffffffffffffffffffffffffffffffffffffff1614610b7157600080fd5b600260009054906101000a900473ffffffffffffffffffffffffffffffffffffffff1673ffffffffffffffffffffffffffffffffffffffff1663a1cb581f600d546040518263ffffffff1660e01b81526004018082815260200191505060206040518083038186803b158015610be657600080fd5b505afa158015610bfa573d6000803e3d6000fd5b505050506040513d6020811015610c1057600080fd5b8101908080519060200190929190505050610c93576040517f08c379a00000000000000000000000000000000000000000000000000000000081526004018080602001828103825260138152602001807f546f6b656e20646f65736e27742065786973740000000000000000000000000081525060200191505060405180910390fd5b600154421015610d0b576040517f08c379a00000000000000000000000000000000000000000000000000000000081526004018080602001828103825260168152602001807f41756374696f6e206e6f742079657420656e6465642e0000000000000000000081525060200191505060405180910390fd5b600b60009054906101000a900460ff1615610d71576040517f08c379a00000000000000000000000000000000000000000000000000000000081526004018080602001828103825260238152602001806112546023913960400191505060405180910390fd5b6001600b60006101000a81548160ff0219169083151502179055507fdaec4582d5d9595688c8c98545fdd1c696d41c6aeaeb636737e84ed2f5c00eda600460009054906101000a900473ffffffffffffffffffffffffffffffffffffffff16600554604051808373ffffffffffffffffffffffffffffffffffffffff1673ffffffffffffffffffffffffffffffffffffffff1681526020018281526020019250505060405180910390a16000809054906101000a900473ffffffffffffffffffffffffffffffffffffffff1673ffffffffffffffffffffffffffffffffffffffff166108fc6005549081150290604051600060405180830381858888f19350505050158015610e84573d6000803e3d6000fd5b50565b6000809054906101000a900473ffffffffffffffffffffffffffffffffffffffff1681565b6000600260009054906101000a900473ffffffffffffffffffffffffffffffffffffffff1673ffffffffffffffffffffffffffffffffffffffff1663a1cb581f600d546040518263ffffffff1660e01b81526004018082815260200191505060206040518083038186803b158015610f2357600080fd5b505afa158015610f37573d6000803e3d6000fd5b505050506040513d6020811015610f4d57600080fd5b8101908080519060200190929190505050610fd0576040517f08c379a00000000000000000000000000000000000000000000000000000000081526004018080602001828103825260138152602001807f546f6b656e20646f65736e27742065786973740000000000000000000000000081525060200191505060405180910390fd5b6000600960003373ffffffffffffffffffffffffffffffffffffffff1673ffffffffffffffffffffffffffffffffffffffff16815260200190815260200160002054905060008111156110ea576000600960003373ffffffffffffffffffffffffffffffffffffffff1673ffffffffffffffffffffffffffffffffffffffff168152602001908152602001600020819055503373ffffffffffffffffffffffffffffffffffffffff166108fc829081150290604051600060405180830381858888f193505050506110e95780600960003373ffffffffffffffffffffffffffffffffffffffff1673ffffffffffffffffffffffffffffffffffffffff1681526020019081526020016000208190555060009150506110f0565b5b60019150505b90565b60085481565b60015481565b6000600a60008373ffffffffffffffffffffffffffffffffffffffff1673ffffffffffffffffffffffffffffffffffffffff168152602001908152602001600020549050919050565b600a6020528060005260406000206000915090505481565b60075481565b600460009054906101000a900473ffffffffffffffffffffffffffffffffffffffff1681565b600080600060055414156111da5760006007546103e8600654816111ac57fe5b040260065401905060006008546064600654816111c557fe5b04026006540190508181935093505050611216565b60006007546103e8600554816111ec57fe5b0402600554019050600060085460646005548161120557fe5b040260055401905081819350935050505b9091565b600d5481565b60055481565b600c5481565b6006548156fe596f752061726520616c726561647920746865206869676865737442696464657261756374696f6e456e642068617320616c7265616479206265656e2063616c6c65642e596f757220626964206973206f7574206f6620616c6c6f7765642072616e67652028737461727429596f757220626964206973206f7574206f6620616c6c6f7765642072616e676520a265627a7a72315820db6dd127ef7cdffcc50139cb7fde66d60ef1bec545dbc1254965a1646728c3e364736f6c63430005100032a265627a7a723158201d6fc60bde1d62f544d48e0a170b842ff01064072fff250920a85e66c2353d7464736f6c63430005100032",
  "source": "// AuctionBox.sol\r\n// We will be using Solidity version 0.5.3\r\npragma solidity 0.5.16;\r\n// Importing OpenZeppelin's SafeMath Implementation\r\nimport \"./SafeMath.sol\";\r\nimport \"./Art.sol\";\r\n\r\ncontract AuctionBox{\r\n    ART_CONTRACT private token;\r\n    address internal owner;\r\n    \r\n    \r\n    EnglishAuction[] public auctions; \r\n    constructor() public {\r\n        owner = msg.sender;\r\n    }   \r\n    \r\n    modifier onlyOwner {\r\n        require(msg.sender == owner);\r\n        _;\r\n    }\r\n    function createAuction (ART_CONTRACT _token, address payable _beneficiary, uint _biddingTime, \r\n                            uint _startPrice, uint256 _share_id, uint256 _token_id, uint256 _step_min, uint256 _step_max)  onlyOwner public{\r\n        // set the new instance\r\n        EnglishAuction newEnglishAuction = new EnglishAuction(_token, msg.sender, _biddingTime, _beneficiary, _startPrice, _share_id, _token_id, _step_min, _step_max);\r\n        // push the auction address to auctions array\r\n        auctions.push(newEnglishAuction);\r\n    }\r\n    \r\n    function returnAllAuctions() public view returns(EnglishAuction[] memory){\r\n        return auctions;\r\n    }\r\n}\r\n\r\ncontract EnglishAuction {\r\n    // Parameters of the auction. Times are either\r\n    // absolute unix timestamps (seconds since 1970-01-01)\r\n    // or time periods in seconds.\r\n    address payable public beneficiary;\r\n    uint public auctionEndTime;\r\n    \r\n    ART_CONTRACT private token;\r\n    address private owner;\r\n    modifier onlyOwner {\r\n        require(msg.sender == owner);\r\n        _;\r\n    }\r\n\r\n    modifier tokenExist {\r\n        require(token.token_exist(token_id), \"Token doesn't exist\");\r\n        _;\r\n    }\r\n\r\n    // Current state of the auction.\r\n    address public highestBidder;\r\n    uint public highestBid;\r\n    uint public startPrice;\r\n    uint public step_min;\r\n    uint public step_max;\r\n    \r\n    //uint public MIN_PERCENT = 0.005; \r\n    //uint public MAX_PERCENT = 0.05;\r\n    // Allowed withdrawals of previous bids\r\n    mapping(address => uint) pendingReturns;\r\n    mapping(address => uint) public participant_latest_bid;\r\n\r\n    // Set to true at the end, disallows any change.\r\n    // By default initialized to `false`.\r\n    bool public is_ended;\r\n    \r\n    uint256 public share_id;\r\n    uint256 public token_id;\r\n\r\n    // Events that will be emitted on changes.\r\n    event HighestBidIncreased(address bidder, uint amount);\r\n    event AuctionEnded(address winner, uint amount);\r\n\r\n    // The following is a so-called natspec comment,\r\n    // recognizable by the three slashes.\r\n    // It will be shown when the user is asked to\r\n    // confirm a transaction.\r\n\r\n    /// Create a simple auction with `_biddingTime`\r\n    /// seconds bidding time on behalf of the\r\n    /// beneficiary address `_beneficiary`.\r\n    constructor(\r\n        ART_CONTRACT _token,\r\n        address _owner, \r\n        uint _biddingTime,\r\n        address payable _beneficiary,\r\n        uint _startPrice,\r\n        uint256 _share_id,\r\n        uint256 _token_id,\r\n        uint256 _step_min,\r\n        uint256 _step_max\r\n            ) public {\r\n        \r\n        token = _token;\r\n        beneficiary = _beneficiary;\r\n        auctionEndTime = now + _biddingTime;\r\n        startPrice = _startPrice;\r\n        owner = _owner;\r\n        share_id = _share_id;\r\n        token_id = _token_id;\r\n        step_min = _step_min;\r\n        step_max = _step_max;\r\n    }\r\n\r\n    /// Bid on the auction with the value sent\r\n    /// together with this transaction.\r\n    /// The value will only be refunded if the\r\n    /// auction is not won.\r\n    function bid() tokenExist public payable {\r\n        // No arguments are necessary, all\r\n        // information is already part of\r\n        // the transaction. The keyword payable\r\n        // is required for the function to\r\n        // be able to receive Ether.\r\n\r\n        // Revert the call if the bidding\r\n        // period is over.\r\n        \r\n        require(now <= auctionEndTime,\"Auction already ended.\");\r\n        require(msg.sender != highestBidder, \"You are already the highestBidder\");\r\n        // If the bid is not higher, send the\r\n        // money back.\r\n        require(msg.value + participant_latest_bid[msg.sender] >= startPrice); //msg.value (delta) + latest_bid\r\n        //if (highestBid == 0) {\r\n        //    require(msg.value + participant_latest_bid[msg.sender] > (1 + step_min/1000) wei * startPrice &&  msg.value + participant_latest_bid[msg.sender] < (1 + step_max/100) * startPrice, \"Your bid is out of allowed range (start)\");  /// \r\n        //} else {\r\n        //    require(msg.value + participant_latest_bid[msg.sender] > (1 + step_min/1000) * highestBid &&  msg.value + participant_latest_bid[msg.sender] < (1 + step_max/100) * highestBid, \"Your bid is out of allowed range \");  /// \r\n        //}\r\n        (uint256 min_bid, uint256 max_bid) = bid_range();\r\n        if (highestBid == 0) {\r\n            require(msg.value + participant_latest_bid[msg.sender] > min_bid  &&  msg.value + participant_latest_bid[msg.sender] <= max_bid , \"Your bid is out of allowed range (start)\");  /// \r\n        } else {\r\n            require(msg.value + participant_latest_bid[msg.sender] > min_bid  &&  msg.value + participant_latest_bid[msg.sender] <= max_bid , \"Your bid is out of allowed range \");  /// \r\n        }   // !!!! DELTA\r\n        \r\n        \r\n        //require(msg.value + participant_latest_bid[msg.sender] > (1 + step_min/1000) * highestBid &&  msg.value + participant_latest_bid[msg.sender] < (1 + step_max/100) * highestBid, \"Your bid is out of allowed range \");  /// msg.value + old_bid > highestBid + step_min && msg.value + old_bid <= highestBid + step_max\r\n        \r\n        // the first bid already in auction\r\n        if (highestBid != 0) {\r\n            // Sending back the money by simply using\r\n            // highestBidder.send(highestBid) is a security risk\r\n            // because it could execute an untrusted contract.\r\n            // It is always safer to let the recipients\r\n            // withdraw their money themselves.\r\n            pendingReturns[highestBidder] = participant_latest_bid[highestBidder]; /// += --> =\r\n        }\r\n\r\n        highestBidder = msg.sender;\r\n        highestBid = participant_latest_bid[highestBidder] + msg.value;\r\n        participant_latest_bid[msg.sender] += msg.value;\r\n        emit HighestBidIncreased(msg.sender, msg.value);\r\n    }\r\n\r\n    function get_latest_bid(address _address) public view returns (uint256) {\r\n        return participant_latest_bid[_address];\r\n    }\r\n\r\n    function bid_range() public view returns (uint256, uint256) {\r\n        if (highestBid == 0) {\r\n            uint256 a = startPrice + (startPrice/1e3)*step_min;\r\n            uint256 b = startPrice + (startPrice/1e2)*step_max;\r\n            return (a, b);\r\n        } else {\r\n            uint256 a = highestBid + (highestBid/1e3)*step_min;\r\n            uint256 b = highestBid + (highestBid/1e2)*step_max;\r\n            return (a, b);\r\n        }\r\n\r\n        \r\n    }\r\n    /// Withdraw a bid that was overbid.\r\n    function withdraw() public tokenExist returns (bool) {\r\n        uint amount = pendingReturns[msg.sender];\r\n        if (amount > 0) {\r\n            // It is important to set this to zero because the recipient\r\n            // can call this function again as part of the receiving call\r\n            // before `send` returns.\r\n            pendingReturns[msg.sender] = 0;\r\n\r\n            if (!msg.sender.send(amount)) {\r\n                // No need to call throw here, just reset the amount owing\r\n                pendingReturns[msg.sender] = amount;\r\n                return false;\r\n            }\r\n        }\r\n        return true;\r\n    }\r\n\r\n    /// End the auction and send the highest bid\r\n    /// to the beneficiary.\r\n    function auctionEnd() public onlyOwner tokenExist {\r\n        // It is a good guideline to structure functions that interact\r\n        // with other contracts (i.e. they call functions or send Ether)\r\n        // into three phases:\r\n        // 1. checking conditions\r\n        // 2. performing actions (potentially changing conditions)\r\n        // 3. interacting with other contracts\r\n        // If these phases are mixed up, the other contract could call\r\n        // back into the current contract and modify the state or cause\r\n        // effects (ether payout) to be performed multiple times.\r\n        // If functions called internally include interaction with external\r\n        // contracts, they also have to be considered interaction with\r\n        // external contracts.\r\n\r\n        // 1. Conditions\r\n        require(now >= auctionEndTime, \"Auction not yet ended.\");\r\n        require(!is_ended, \"auctionEnd has already been called.\");\r\n\r\n        // 2. Effects\r\n        is_ended = true;\r\n        emit AuctionEnded(highestBidder, highestBid);\r\n\r\n        // 3. Interaction\r\n        beneficiary.transfer(highestBid);\r\n        //token.transferFrom(beneficiary, highestBidder, share_id); \r\n        \r\n    }\r\n}",
  "sourcePath": "C:/Users/ILYA/Desktop/Sirius/art_project_auctions_and_deploy/contracts/Auction.sol",
  "compiler": {
    "name": "solc",
    "version": "0.5.16+commit.9c3226ce.Emscripten.clang"
  },
  "schemaVersion": "3.3.3",
  "updatedAt": "2021-04-21T04:57:57.019Z",
  "networkType": "ethereum",
  "devdoc": {
    "methods": {}
  },
  "userdoc": {
    "methods": {}
  }
}