{
  "contractName": "EnglishAuction",
  "abi": [
    {
      "inputs": [
        {
          "internalType": "contract ART_CONTRACT",
          "name": "_token",
          "type": "address"
        },
        {
          "internalType": "address",
          "name": "_owner",
          "type": "address"
        },
        {
          "internalType": "uint256",
          "name": "_biddingTime",
          "type": "uint256"
        },
        {
          "internalType": "address payable",
          "name": "_beneficiary",
          "type": "address"
        },
        {
          "internalType": "uint256",
          "name": "_startPrice",
          "type": "uint256"
        },
        {
          "internalType": "uint256",
          "name": "_share_id",
          "type": "uint256"
        },
        {
          "internalType": "uint256",
          "name": "_token_id",
          "type": "uint256"
        },
        {
          "internalType": "uint256",
          "name": "_step_min",
          "type": "uint256"
        },
        {
          "internalType": "uint256",
          "name": "_step_max",
          "type": "uint256"
        }
      ],
      "payable": false,
      "stateMutability": "nonpayable",
      "type": "constructor"
    },
    {
      "anonymous": false,
      "inputs": [
        {
          "indexed": false,
          "internalType": "address",
          "name": "winner",
          "type": "address"
        },
        {
          "indexed": false,
          "internalType": "uint256",
          "name": "amount",
          "type": "uint256"
        }
      ],
      "name": "AuctionEnded",
      "type": "event"
    },
    {
      "anonymous": false,
      "inputs": [
        {
          "indexed": false,
          "internalType": "address",
          "name": "bidder",
          "type": "address"
        },
        {
          "indexed": false,
          "internalType": "uint256",
          "name": "amount",
          "type": "uint256"
        }
      ],
      "name": "HighestBidIncreased",
      "type": "event"
    },
    {
      "constant": true,
      "inputs": [],
      "name": "auctionEndTime",
      "outputs": [
        {
          "internalType": "uint256",
          "name": "",
          "type": "uint256"
        }
      ],
      "payable": false,
      "stateMutability": "view",
      "type": "function"
    },
    {
      "constant": true,
      "inputs": [],
      "name": "beneficiary",
      "outputs": [
        {
          "internalType": "address payable",
          "name": "",
          "type": "address"
        }
      ],
      "payable": false,
      "stateMutability": "view",
      "type": "function"
    },
    {
      "constant": true,
      "inputs": [],
      "name": "highestBid",
      "outputs": [
        {
          "internalType": "uint256",
          "name": "",
          "type": "uint256"
        }
      ],
      "payable": false,
      "stateMutability": "view",
      "type": "function"
    },
    {
      "constant": true,
      "inputs": [],
      "name": "highestBidder",
      "outputs": [
        {
          "internalType": "address",
          "name": "",
          "type": "address"
        }
      ],
      "payable": false,
      "stateMutability": "view",
      "type": "function"
    },
    {
      "constant": true,
      "inputs": [],
      "name": "is_ended",
      "outputs": [
        {
          "internalType": "bool",
          "name": "",
          "type": "bool"
        }
      ],
      "payable": false,
      "stateMutability": "view",
      "type": "function"
    },
    {
      "constant": true,
      "inputs": [
        {
          "internalType": "address",
          "name": "",
          "type": "address"
        }
      ],
      "name": "participant_latest_bid",
      "outputs": [
        {
          "internalType": "uint256",
          "name": "",
          "type": "uint256"
        }
      ],
      "payable": false,
      "stateMutability": "view",
      "type": "function"
    },
    {
      "constant": true,
      "inputs": [],
      "name": "share_id",
      "outputs": [
        {
          "internalType": "uint256",
          "name": "",
          "type": "uint256"
        }
      ],
      "payable": false,
      "stateMutability": "view",
      "type": "function"
    },
    {
      "constant": true,
      "inputs": [],
      "name": "startPrice",
      "outputs": [
        {
          "internalType": "uint256",
          "name": "",
          "type": "uint256"
        }
      ],
      "payable": false,
      "stateMutability": "view",
      "type": "function"
    },
    {
      "constant": true,
      "inputs": [],
      "name": "step_max",
      "outputs": [
        {
          "internalType": "uint256",
          "name": "",
          "type": "uint256"
        }
      ],
      "payable": false,
      "stateMutability": "view",
      "type": "function"
    },
    {
      "constant": true,
      "inputs": [],
      "name": "step_min",
      "outputs": [
        {
          "internalType": "uint256",
          "name": "",
          "type": "uint256"
        }
      ],
      "payable": false,
      "stateMutability": "view",
      "type": "function"
    },
    {
      "constant": true,
      "inputs": [],
      "name": "token_id",
      "outputs": [
        {
          "internalType": "uint256",
          "name": "",
          "type": "uint256"
        }
      ],
      "payable": false,
      "stateMutability": "view",
      "type": "function"
    },
    {
      "constant": false,
      "inputs": [],
      "name": "bid",
      "outputs": [],
      "payable": true,
      "stateMutability": "payable",
      "type": "function"
    },
    {
      "constant": true,
      "inputs": [],
      "name": "bid_range",
      "outputs": [
        {
          "internalType": "uint256",
          "name": "",
          "type": "uint256"
        },
        {
          "internalType": "uint256",
          "name": "",
          "type": "uint256"
        }
      ],
      "payable": false,
      "stateMutability": "view",
      "type": "function"
    },
    {
      "constant": false,
      "inputs": [],
      "name": "withdraw",
      "outputs": [
        {
          "internalType": "bool",
          "name": "",
          "type": "bool"
        }
      ],
      "payable": false,
      "stateMutability": "nonpayable",
      "type": "function"
    },
    {
      "constant": false,
      "inputs": [],
      "name": "auctionEnd",
      "outputs": [],
      "payable": false,
      "stateMutability": "nonpayable",
      "type": "function"
    }
  ],
  "bytecode": "0x608060405234801561001057600080fd5b506040516113d63803806113d6833981810160405261012081101561003457600080fd5b8101908080519060200190929190805190602001909291908051906020019092919080519060200190929190805190602001909291908051906020019092919080519060200190929190805190602001909291908051906020019092919050505088600260006101000a81548173ffffffffffffffffffffffffffffffffffffffff021916908373ffffffffffffffffffffffffffffffffffffffff160217905550856000806101000a81548173ffffffffffffffffffffffffffffffffffffffff021916908373ffffffffffffffffffffffffffffffffffffffff1602179055508642016001819055508460068190555087600360006101000a81548173ffffffffffffffffffffffffffffffffffffffff021916908373ffffffffffffffffffffffffffffffffffffffff16021790555083600c8190555082600d81905550816007819055508060088190555050505050505050505061123b8061019b6000396000f3fe6080604052600436106100e85760003560e01c8063617687e31161008a578063d566813111610059578063d566813114610332578063d57bde791461035d578063d5d210a914610388578063f1a9af89146103b3576100e8565b8063617687e31461021957806385b01da01461027e57806391f90157146102a9578063d3a4a53e14610300576100e8565b806338af3eed116100c657806338af3eed1461013d5780633ccfd60b1461019457806348cb6b77146101c35780634b449cba146101ee576100e8565b80631998aeef146100ed5780632452cd30146100f75780632a24f46c14610126575b600080fd5b6100f56103de565b005b34801561010357600080fd5b5061010c610a94565b604051808215151515815260200191505060405180910390f35b34801561013257600080fd5b5061013b610aa7565b005b34801561014957600080fd5b50610152610e17565b604051808273ffffffffffffffffffffffffffffffffffffffff1673ffffffffffffffffffffffffffffffffffffffff16815260200191505060405180910390f35b3480156101a057600080fd5b506101a9610e3c565b604051808215151515815260200191505060405180910390f35b3480156101cf57600080fd5b506101d8611083565b6040518082815260200191505060405180910390f35b3480156101fa57600080fd5b50610203611089565b6040518082815260200191505060405180910390f35b34801561022557600080fd5b506102686004803603602081101561023c57600080fd5b81019080803573ffffffffffffffffffffffffffffffffffffffff16906020019092919050505061108f565b6040518082815260200191505060405180910390f35b34801561028a57600080fd5b506102936110a7565b6040518082815260200191505060405180910390f35b3480156102b557600080fd5b506102be6110ad565b604051808273ffffffffffffffffffffffffffffffffffffffff1673ffffffffffffffffffffffffffffffffffffffff16815260200191505060405180910390f35b34801561030c57600080fd5b506103156110d3565b604051808381526020018281526020019250505060405180910390f35b34801561033e57600080fd5b50610347611161565b6040518082815260200191505060405180910390f35b34801561036957600080fd5b50610372611167565b6040518082815260200191505060405180910390f35b34801561039457600080fd5b5061039d61116d565b6040518082815260200191505060405180910390f35b3480156103bf57600080fd5b506103c8611173565b6040518082815260200191505060405180910390f35b600260009054906101000a900473ffffffffffffffffffffffffffffffffffffffff1673ffffffffffffffffffffffffffffffffffffffff1663a1cb581f600d546040518263ffffffff1660e01b81526004018082815260200191505060206040518083038186803b15801561045357600080fd5b505afa158015610467573d6000803e3d6000fd5b505050506040513d602081101561047d57600080fd5b8101908080519060200190929190505050610500576040517f08c379a00000000000000000000000000000000000000000000000000000000081526004018080602001828103825260138152602001807f546f6b656e20646f65736e27742065786973740000000000000000000000000081525060200191505060405180910390fd5b600154421115610578576040517f08c379a00000000000000000000000000000000000000000000000000000000081526004018080602001828103825260168152602001807f41756374696f6e20616c726561647920656e6465642e0000000000000000000081525060200191505060405180910390fd5b600460009054906101000a900473ffffffffffffffffffffffffffffffffffffffff1673ffffffffffffffffffffffffffffffffffffffff163373ffffffffffffffffffffffffffffffffffffffff16141561061f576040517f08c379a000000000000000000000000000000000000000000000000000000000815260040180806020018281038252602181526020018061117a6021913960400191505060405180910390fd5b600654600a60003373ffffffffffffffffffffffffffffffffffffffff1673ffffffffffffffffffffffffffffffffffffffff168152602001908152602001600020543401101561066f57600080fd5b60008061067a6110d3565b91509150600060055414156107745781600a60003373ffffffffffffffffffffffffffffffffffffffff1673ffffffffffffffffffffffffffffffffffffffff16815260200190815260200160002054340111801561071a575080600a60003373ffffffffffffffffffffffffffffffffffffffff1673ffffffffffffffffffffffffffffffffffffffff16815260200190815260200160002054340111155b61076f576040517f08c379a00000000000000000000000000000000000000000000000000000000081526004018080602001828103825260288152602001806111be6028913960400191505060405180910390fd5b61085b565b81600a60003373ffffffffffffffffffffffffffffffffffffffff1673ffffffffffffffffffffffffffffffffffffffff168152602001908152602001600020543401118015610805575080600a60003373ffffffffffffffffffffffffffffffffffffffff1673ffffffffffffffffffffffffffffffffffffffff16815260200190815260200160002054340111155b61085a576040517f08c379a00000000000000000000000000000000000000000000000000000000081526004018080602001828103825260218152602001806111e66021913960400191505060405180910390fd5b5b60006005541461092d57600a6000600460009054906101000a900473ffffffffffffffffffffffffffffffffffffffff1673ffffffffffffffffffffffffffffffffffffffff1673ffffffffffffffffffffffffffffffffffffffff1681526020019081526020016000205460096000600460009054906101000a900473ffffffffffffffffffffffffffffffffffffffff1673ffffffffffffffffffffffffffffffffffffffff1673ffffffffffffffffffffffffffffffffffffffff168152602001908152602001600020819055505b33600460006101000a81548173ffffffffffffffffffffffffffffffffffffffff021916908373ffffffffffffffffffffffffffffffffffffffff16021790555034600a6000600460009054906101000a900473ffffffffffffffffffffffffffffffffffffffff1673ffffffffffffffffffffffffffffffffffffffff1673ffffffffffffffffffffffffffffffffffffffff168152602001908152602001600020540160058190555034600a60003373ffffffffffffffffffffffffffffffffffffffff1673ffffffffffffffffffffffffffffffffffffffff168152602001908152602001600020600082825401925050819055507ff4757a49b326036464bec6fe419a4ae38c8a02ce3e68bf0809674f6aab8ad3003334604051808373ffffffffffffffffffffffffffffffffffffffff1673ffffffffffffffffffffffffffffffffffffffff1681526020018281526020019250505060405180910390a15050565b600b60009054906101000a900460ff1681565b600360009054906101000a900473ffffffffffffffffffffffffffffffffffffffff1673ffffffffffffffffffffffffffffffffffffffff163373ffffffffffffffffffffffffffffffffffffffff1614610b0157600080fd5b600260009054906101000a900473ffffffffffffffffffffffffffffffffffffffff1673ffffffffffffffffffffffffffffffffffffffff1663a1cb581f600d546040518263ffffffff1660e01b81526004018082815260200191505060206040518083038186803b158015610b7657600080fd5b505afa158015610b8a573d6000803e3d6000fd5b505050506040513d6020811015610ba057600080fd5b8101908080519060200190929190505050610c23576040517f08c379a00000000000000000000000000000000000000000000000000000000081526004018080602001828103825260138152602001807f546f6b656e20646f65736e27742065786973740000000000000000000000000081525060200191505060405180910390fd5b600154421015610c9b576040517f08c379a00000000000000000000000000000000000000000000000000000000081526004018080602001828103825260168152602001807f41756374696f6e206e6f742079657420656e6465642e0000000000000000000081525060200191505060405180910390fd5b600b60009054906101000a900460ff1615610d01576040517f08c379a000000000000000000000000000000000000000000000000000000000815260040180806020018281038252602381526020018061119b6023913960400191505060405180910390fd5b6001600b60006101000a81548160ff0219169083151502179055507fdaec4582d5d9595688c8c98545fdd1c696d41c6aeaeb636737e84ed2f5c00eda600460009054906101000a900473ffffffffffffffffffffffffffffffffffffffff16600554604051808373ffffffffffffffffffffffffffffffffffffffff1673ffffffffffffffffffffffffffffffffffffffff1681526020018281526020019250505060405180910390a16000809054906101000a900473ffffffffffffffffffffffffffffffffffffffff1673ffffffffffffffffffffffffffffffffffffffff166108fc6005549081150290604051600060405180830381858888f19350505050158015610e14573d6000803e3d6000fd5b50565b6000809054906101000a900473ffffffffffffffffffffffffffffffffffffffff1681565b6000600260009054906101000a900473ffffffffffffffffffffffffffffffffffffffff1673ffffffffffffffffffffffffffffffffffffffff1663a1cb581f600d546040518263ffffffff1660e01b81526004018082815260200191505060206040518083038186803b158015610eb357600080fd5b505afa158015610ec7573d6000803e3d6000fd5b505050506040513d6020811015610edd57600080fd5b8101908080519060200190929190505050610f60576040517f08c379a00000000000000000000000000000000000000000000000000000000081526004018080602001828103825260138152602001807f546f6b656e20646f65736e27742065786973740000000000000000000000000081525060200191505060405180910390fd5b6000600960003373ffffffffffffffffffffffffffffffffffffffff1673ffffffffffffffffffffffffffffffffffffffff168152602001908152602001600020549050600081111561107a576000600960003373ffffffffffffffffffffffffffffffffffffffff1673ffffffffffffffffffffffffffffffffffffffff168152602001908152602001600020819055503373ffffffffffffffffffffffffffffffffffffffff166108fc829081150290604051600060405180830381858888f193505050506110795780600960003373ffffffffffffffffffffffffffffffffffffffff1673ffffffffffffffffffffffffffffffffffffffff168152602001908152602001600020819055506000915050611080565b5b60019150505b90565b60085481565b60015481565b600a6020528060005260406000206000915090505481565b60075481565b600460009054906101000a900473ffffffffffffffffffffffffffffffffffffffff1681565b600080600060055414156111215760006007546103e8600654816110f357fe5b0402600654019050600060085460646006548161110c57fe5b0402600654019050818193509350505061115d565b60006007546103e86005548161113357fe5b0402600554019050600060085460646005548161114c57fe5b040260055401905081819350935050505b9091565b600d5481565b60055481565b600c5481565b6006548156fe596f752061726520616c726561647920746865206869676865737442696464657261756374696f6e456e642068617320616c7265616479206265656e2063616c6c65642e596f757220626964206973206f7574206f6620616c6c6f7765642072616e67652028737461727429596f757220626964206973206f7574206f6620616c6c6f7765642072616e676520a265627a7a72315820395672c6dbc19715b31a96b840eda5c3a53c116cb7273d13b08f2a25d40bf86564736f6c63430005100032",
  "source": "// AuctionBox.sol\n// We will be using Solidity version 0.5.3\npragma solidity 0.5.16;\n// Importing OpenZeppelin's SafeMath Implementation\nimport \"./SafeMath.sol\";\nimport \"./Art.sol\";\n\ncontract AuctionBox{\n    ART_CONTRACT private token;\n    address internal owner;\n    \n    \n    EnglishAuction[] public auctions; \n    constructor() public {\n        owner = msg.sender;\n    }   \n    \n    modifier onlyOwner {\n        require(msg.sender == owner);\n        _;\n    }\n    function createAuction (ART_CONTRACT _token, address payable _beneficiary, uint _biddingTime, \n                            uint _startPrice, uint256 _share_id, uint256 _token_id, uint256 _step_min, uint256 _step_max)  onlyOwner public{\n        // set the new instance\n        EnglishAuction newEnglishAuction = new EnglishAuction(_token, msg.sender, _biddingTime, _beneficiary, _startPrice, _share_id, _token_id, _step_min, _step_max);\n        // push the auction address to auctions array\n        auctions.push(newEnglishAuction);\n    }\n    \n    function returnAllAuctions() public view returns(EnglishAuction[] memory){\n        return auctions;\n    }\n}\n\ncontract EnglishAuction {\n    // Parameters of the auction. Times are either\n    // absolute unix timestamps (seconds since 1970-01-01)\n    // or time periods in seconds.\n    address payable public beneficiary;\n    uint public auctionEndTime;\n    \n    ART_CONTRACT private token;\n    address private owner;\n    modifier onlyOwner {\n        require(msg.sender == owner);\n        _;\n    }\n\n    modifier tokenExist {\n        require(token.token_exist(token_id), \"Token doesn't exist\");\n        _;\n    }\n\n    // Current state of the auction.\n    address public highestBidder;\n    uint public highestBid;\n    uint public startPrice;\n    uint public step_min;\n    uint public step_max;\n    \n    //uint public MIN_PERCENT = 0.005; \n    //uint public MAX_PERCENT = 0.05;\n    // Allowed withdrawals of previous bids\n    mapping(address => uint) pendingReturns;\n    mapping(address => uint) public participant_latest_bid;\n\n    // Set to true at the end, disallows any change.\n    // By default initialized to `false`.\n    bool public is_ended;\n    \n    uint256 public share_id;\n    uint256 public token_id;\n\n    // Events that will be emitted on changes.\n    event HighestBidIncreased(address bidder, uint amount);\n    event AuctionEnded(address winner, uint amount);\n\n    // The following is a so-called natspec comment,\n    // recognizable by the three slashes.\n    // It will be shown when the user is asked to\n    // confirm a transaction.\n\n    /// Create a simple auction with `_biddingTime`\n    /// seconds bidding time on behalf of the\n    /// beneficiary address `_beneficiary`.\n    constructor(\n        ART_CONTRACT _token,\n        address _owner, \n        uint _biddingTime,\n        address payable _beneficiary,\n        uint _startPrice,\n        uint256 _share_id,\n        uint256 _token_id,\n        uint256 _step_min,\n        uint256 _step_max\n            ) public {\n        \n        token = _token;\n        beneficiary = _beneficiary;\n        auctionEndTime = now + _biddingTime;\n        startPrice = _startPrice;\n        owner = _owner;\n        share_id = _share_id;\n        token_id = _token_id;\n        step_min = _step_min;\n        step_max = _step_max;\n    }\n\n    /// Bid on the auction with the value sent\n    /// together with this transaction.\n    /// The value will only be refunded if the\n    /// auction is not won.\n    function bid() tokenExist public payable {\n        // No arguments are necessary, all\n        // information is already part of\n        // the transaction. The keyword payable\n        // is required for the function to\n        // be able to receive Ether.\n\n        // Revert the call if the bidding\n        // period is over.\n        \n        require(now <= auctionEndTime,\"Auction already ended.\");\n        require(msg.sender != highestBidder, \"You are already the highestBidder\");\n        // If the bid is not higher, send the\n        // money back.\n        require(msg.value + participant_latest_bid[msg.sender] >= startPrice); //msg.value (delta) + latest_bid\n        //if (highestBid == 0) {\n        //    require(msg.value + participant_latest_bid[msg.sender] > (1 + step_min/1000) wei * startPrice &&  msg.value + participant_latest_bid[msg.sender] < (1 + step_max/100) * startPrice, \"Your bid is out of allowed range (start)\");  /// \n        //} else {\n        //    require(msg.value + participant_latest_bid[msg.sender] > (1 + step_min/1000) * highestBid &&  msg.value + participant_latest_bid[msg.sender] < (1 + step_max/100) * highestBid, \"Your bid is out of allowed range \");  /// \n        //}\n        (uint256 min_bid, uint256 max_bid) = bid_range();\n        if (highestBid == 0) {\n            require(msg.value + participant_latest_bid[msg.sender] > min_bid  &&  msg.value + participant_latest_bid[msg.sender] <= max_bid , \"Your bid is out of allowed range (start)\");  /// \n        } else {\n            require(msg.value + participant_latest_bid[msg.sender] > min_bid  &&  msg.value + participant_latest_bid[msg.sender] <= max_bid , \"Your bid is out of allowed range \");  /// \n        }   // !!!! DELTA\n        \n        \n        //require(msg.value + participant_latest_bid[msg.sender] > (1 + step_min/1000) * highestBid &&  msg.value + participant_latest_bid[msg.sender] < (1 + step_max/100) * highestBid, \"Your bid is out of allowed range \");  /// msg.value + old_bid > highestBid + step_min && msg.value + old_bid <= highestBid + step_max\n        \n        // the first bid already in auction\n        if (highestBid != 0) {\n            // Sending back the money by simply using\n            // highestBidder.send(highestBid) is a security risk\n            // because it could execute an untrusted contract.\n            // It is always safer to let the recipients\n            // withdraw their money themselves.\n            pendingReturns[highestBidder] = participant_latest_bid[highestBidder]; /// += --> =\n        }\n\n        highestBidder = msg.sender;\n        highestBid = participant_latest_bid[highestBidder] + msg.value;\n        participant_latest_bid[msg.sender] += msg.value;\n        emit HighestBidIncreased(msg.sender, msg.value);\n    }\n\n    function bid_range() public view returns (uint256, uint256) {\n        if (highestBid == 0) {\n            uint256 a = startPrice + (startPrice/1e3)*step_min;\n            uint256 b = startPrice + (startPrice/1e2)*step_max;\n            return (a, b);\n        } else {\n            uint256 a = highestBid + (highestBid/1e3)*step_min;\n            uint256 b = highestBid + (highestBid/1e2)*step_max;\n            return (a, b);\n        }\n\n        \n    }\n    /// Withdraw a bid that was overbid.\n    function withdraw() public tokenExist returns (bool) {\n        uint amount = pendingReturns[msg.sender];\n        if (amount > 0) {\n            // It is important to set this to zero because the recipient\n            // can call this function again as part of the receiving call\n            // before `send` returns.\n            pendingReturns[msg.sender] = 0;\n\n            if (!msg.sender.send(amount)) {\n                // No need to call throw here, just reset the amount owing\n                pendingReturns[msg.sender] = amount;\n                return false;\n            }\n        }\n        return true;\n    }\n\n    /// End the auction and send the highest bid\n    /// to the beneficiary.\n    function auctionEnd() public onlyOwner tokenExist {\n        // It is a good guideline to structure functions that interact\n        // with other contracts (i.e. they call functions or send Ether)\n        // into three phases:\n        // 1. checking conditions\n        // 2. performing actions (potentially changing conditions)\n        // 3. interacting with other contracts\n        // If these phases are mixed up, the other contract could call\n        // back into the current contract and modify the state or cause\n        // effects (ether payout) to be performed multiple times.\n        // If functions called internally include interaction with external\n        // contracts, they also have to be considered interaction with\n        // external contracts.\n\n        // 1. Conditions\n        require(now >= auctionEndTime, \"Auction not yet ended.\");\n        require(!is_ended, \"auctionEnd has already been called.\");\n\n        // 2. Effects\n        is_ended = true;\n        emit AuctionEnded(highestBidder, highestBid);\n\n        // 3. Interaction\n        beneficiary.transfer(highestBid);\n        //token.transferFrom(beneficiary, highestBidder, share_id); \n        \n    }\n}",
  "sourcePath": "/home/mrfox131/WORK/artoken/Client_communication/contracts/Auction.sol",
  "compiler": {
    "name": "solc",
    "version": "0.5.16+commit.9c3226ce.Emscripten.clang"
  },
  "schemaVersion": "3.4.3",
  "updatedAt": "2021-10-07T05:40:58.263Z",
  "devdoc": {
    "methods": {}
  },
  "userdoc": {
    "methods": {
      "auctionEnd()": {
        "notice": "End the auction and send the highest bid to the beneficiary."
      },
      "bid()": {
        "notice": "Bid on the auction with the value sent together with this transaction. The value will only be refunded if the auction is not won."
      },
      "constructor": "Create a simple auction with `_biddingTime` seconds bidding time on behalf of the beneficiary address `_beneficiary`.",
      "withdraw()": {
        "notice": "Withdraw a bid that was overbid."
      }
    }
  }
}