{
  "contractName": "HashedClosedAuction",
  "abi": [
    {
      "inputs": [
        {
          "internalType": "contract ArtERC20Token",
          "name": "_erc20Token",
          "type": "address"
        },
        {
          "internalType": "contract Diamond",
          "name": "_token",
          "type": "address"
        },
        {
          "internalType": "address",
          "name": "_owner",
          "type": "address"
        },
        {
          "internalType": "uint256",
          "name": "_biddingTime",
          "type": "uint256"
        },
        {
          "internalType": "address payable",
          "name": "_beneficiary",
          "type": "address"
        },
        {
          "internalType": "uint256",
          "name": "_startPrice",
          "type": "uint256"
        },
        {
          "internalType": "uint256",
          "name": "_token_id",
          "type": "uint256"
        },
        {
          "internalType": "uint256",
          "name": "_auctionMaximumBidOverwriteCount",
          "type": "uint256"
        }
      ],
      "payable": false,
      "stateMutability": "nonpayable",
      "type": "constructor"
    },
    {
      "anonymous": false,
      "inputs": [
        {
          "indexed": false,
          "internalType": "address",
          "name": "winner",
          "type": "address"
        },
        {
          "indexed": false,
          "internalType": "uint256",
          "name": "amount",
          "type": "uint256"
        }
      ],
      "name": "AuctionEnded",
      "type": "event"
    },
    {
      "constant": true,
      "inputs": [],
      "name": "auctionEndTime",
      "outputs": [
        {
          "internalType": "uint256",
          "name": "",
          "type": "uint256"
        }
      ],
      "payable": false,
      "stateMutability": "view",
      "type": "function"
    },
    {
      "constant": true,
      "inputs": [],
      "name": "auctionMaximumBidOverwriteCount",
      "outputs": [
        {
          "internalType": "uint256",
          "name": "",
          "type": "uint256"
        }
      ],
      "payable": false,
      "stateMutability": "view",
      "type": "function"
    },
    {
      "constant": true,
      "inputs": [],
      "name": "auctionMinimalBidPrice",
      "outputs": [
        {
          "internalType": "uint256",
          "name": "",
          "type": "uint256"
        }
      ],
      "payable": false,
      "stateMutability": "view",
      "type": "function"
    },
    {
      "constant": true,
      "inputs": [],
      "name": "auctionState",
      "outputs": [
        {
          "internalType": "enum HashedClosedAuction.AuctionStates",
          "name": "",
          "type": "uint8"
        }
      ],
      "payable": false,
      "stateMutability": "view",
      "type": "function"
    },
    {
      "constant": true,
      "inputs": [],
      "name": "beneficiary",
      "outputs": [
        {
          "internalType": "address payable",
          "name": "",
          "type": "address"
        }
      ],
      "payable": false,
      "stateMutability": "view",
      "type": "function"
    },
    {
      "constant": true,
      "inputs": [],
      "name": "is_ended",
      "outputs": [
        {
          "internalType": "bool",
          "name": "",
          "type": "bool"
        }
      ],
      "payable": false,
      "stateMutability": "view",
      "type": "function"
    },
    {
      "constant": true,
      "inputs": [],
      "name": "token_id",
      "outputs": [
        {
          "internalType": "uint256",
          "name": "",
          "type": "uint256"
        }
      ],
      "payable": false,
      "stateMutability": "view",
      "type": "function"
    },
    {
      "constant": true,
      "inputs": [],
      "name": "winner",
      "outputs": [
        {
          "internalType": "address",
          "name": "",
          "type": "address"
        }
      ],
      "payable": false,
      "stateMutability": "view",
      "type": "function"
    },
    {
      "constant": false,
      "inputs": [
        {
          "internalType": "bytes32",
          "name": "hash",
          "type": "bytes32"
        }
      ],
      "name": "bid",
      "outputs": [],
      "payable": false,
      "stateMutability": "nonpayable",
      "type": "function"
    },
    {
      "constant": false,
      "inputs": [
        {
          "internalType": "uint256",
          "name": "bidValue",
          "type": "uint256"
        },
        {
          "internalType": "string",
          "name": "salt",
          "type": "string"
        }
      ],
      "name": "proveBid",
      "outputs": [],
      "payable": false,
      "stateMutability": "nonpayable",
      "type": "function"
    },
    {
      "constant": false,
      "inputs": [
        {
          "internalType": "enum HashedClosedAuction.AuctionStates",
          "name": "state",
          "type": "uint8"
        }
      ],
      "name": "changeAuctionState",
      "outputs": [],
      "payable": false,
      "stateMutability": "nonpayable",
      "type": "function"
    },
    {
      "constant": false,
      "inputs": [],
      "name": "revealWinner",
      "outputs": [],
      "payable": false,
      "stateMutability": "nonpayable",
      "type": "function"
    }
  ],
  "bytecode": "0x608060405234801561001057600080fd5b50604051612e0b380380612e0b833981810160405261010081101561003457600080fd5b81019080805190602001909291908051906020019092919080519060200190929190805190602001909291908051906020019092919080519060200190929190805190602001909291908051906020019092919050505086600260006101000a81548173ffffffffffffffffffffffffffffffffffffffff021916908373ffffffffffffffffffffffffffffffffffffffff16021790555087600360006101000a81548173ffffffffffffffffffffffffffffffffffffffff021916908373ffffffffffffffffffffffffffffffffffffffff16021790555083600160006101000a81548173ffffffffffffffffffffffffffffffffffffffff021916908373ffffffffffffffffffffffffffffffffffffffff16021790555084420160048190555082600681905550856000806101000a81548173ffffffffffffffffffffffffffffffffffffffff021916908373ffffffffffffffffffffffffffffffffffffffff16021790555081600881905550806007819055506000600560006101000a81548160ff021916908360038111156101cb57fe5b02179055505050505050505050612c24806101e76000396000f3fe608060405234801561001057600080fd5b50600436106100b45760003560e01c80637c604b5f116100715780637c604b5f146102435780637d0dc89b146102615780637fb450991461027f578063957bb1e0146102ab578063d5668131146102d9578063dfbf53ae146102f7576100b4565b80632452cd30146100b957806338af3eed146100db5780634b449cba146101255780634bd59290146101435780636c699905146102085780637ad00cd014610212575b600080fd5b6100c1610341565b604051808215151515815260200191505060405180910390f35b6100e3610354565b604051808273ffffffffffffffffffffffffffffffffffffffff1673ffffffffffffffffffffffffffffffffffffffff16815260200191505060405180910390f35b61012d61037a565b6040518082815260200191505060405180910390f35b6102066004803603604081101561015957600080fd5b81019080803590602001909291908035906020019064010000000081111561018057600080fd5b82018360208201111561019257600080fd5b803590602001918460018302840111640100000000831117156101b457600080fd5b91908080601f016020809104026020016040519081016040528093929190818152602001838380828437600081840152601f19601f820116905080830192505050505050509192919290505050610380565b005b610210610e04565b005b6102416004803603602081101561022857600080fd5b81019080803560ff169060200190929190505050611d5a565b005b61024b612404565b6040518082815260200191505060405180910390f35b61026961240a565b6040518082815260200191505060405180910390f35b610287612410565b6040518082600381111561029757fe5b60ff16815260200191505060405180910390f35b6102d7600480360360208110156102c157600080fd5b8101908080359060200190929190505050612423565b005b6102e161294d565b6040518082815260200191505060405180910390f35b6102ff612953565b604051808273ffffffffffffffffffffffffffffffffffffffff1673ffffffffffffffffffffffffffffffffffffffff16815260200191505060405180910390f35b600f60009054906101000a900460ff1681565b600160009054906101000a900473ffffffffffffffffffffffffffffffffffffffff1681565b60045481565b600260009054906101000a900473ffffffffffffffffffffffffffffffffffffffff1673ffffffffffffffffffffffffffffffffffffffff16639d36788e6008546040518263ffffffff1660e01b81526004018082815260200191505060206040518083038186803b1580156103f557600080fd5b505afa158015610409573d6000803e3d6000fd5b505050506040513d602081101561041f57600080fd5b81019080805190602001909291905050506104a2576040517f08c379a00000000000000000000000000000000000000000000000000000000081526004018080602001828103825260138152602001807f546f6b656e20646f65736e27742065786973740000000000000000000000000081525060200191505060405180910390fd5b600260038111156104af57fe5b600560009054906101000a900460ff1660038111156104ca57fe5b14610520576040517f08c379a0000000000000000000000000000000000000000000000000000000008152600401808060200182810382526030815260200180612b1d6030913960400191505060405180910390fd5b600454421115610598576040517f08c379a00000000000000000000000000000000000000000000000000000000081526004018080602001828103825260168152602001807f41756374696f6e20616c726561647920656e6465642e0000000000000000000081525060200191505060405180910390fd5b600f60009054906101000a900460ff16156105fe576040517f08c379a0000000000000000000000000000000000000000000000000000000008152600401808060200182810382526023815260200180612acf6023913960400191505060405180910390fd5b600073ffffffffffffffffffffffffffffffffffffffff16600960009054906101000a900473ffffffffffffffffffffffffffffffffffffffff1673ffffffffffffffffffffffffffffffffffffffff16146106c2576040517f08c379a00000000000000000000000000000000000000000000000000000000081526004018080602001828103825260198152602001807f57696e6e657220616c72656164792064657465726d696e65640000000000000081525060200191505060405180910390fd5b60065482101561071d576040517f08c379a00000000000000000000000000000000000000000000000000000000081526004018080602001828103825260318152602001806129d16031913960400191505060405180910390fd5b81600360009054906101000a900473ffffffffffffffffffffffffffffffffffffffff1673ffffffffffffffffffffffffffffffffffffffff166370a08231336040518263ffffffff1660e01b8152600401808273ffffffffffffffffffffffffffffffffffffffff1673ffffffffffffffffffffffffffffffffffffffff16815260200191505060206040518083038186803b1580156107bd57600080fd5b505afa1580156107d1573d6000803e3d6000fd5b505050506040513d60208110156107e757600080fd5b8101908080519060200190929190505050101561084f576040517f08c379a0000000000000000000000000000000000000000000000000000000008152600401808060200182810382526031815260200180612a9e6031913960400191505060405180910390fd5b81600360009054906101000a900473ffffffffffffffffffffffffffffffffffffffff1673ffffffffffffffffffffffffffffffffffffffff1663dd62ed3e33306040518363ffffffff1660e01b8152600401808373ffffffffffffffffffffffffffffffffffffffff1673ffffffffffffffffffffffffffffffffffffffff1681526020018273ffffffffffffffffffffffffffffffffffffffff1673ffffffffffffffffffffffffffffffffffffffff1681526020019250505060206040518083038186803b15801561092357600080fd5b505afa158015610937573d6000803e3d6000fd5b505050506040513d602081101561094d57600080fd5b810190808051906020019092919050505010156109b5576040517f08c379a0000000000000000000000000000000000000000000000000000000008152600401808060200182810382526070815260200180612b4d6070913960800191505060405180910390fd5b6109bd612979565b600c60003373ffffffffffffffffffffffffffffffffffffffff1673ffffffffffffffffffffffffffffffffffffffff16815260200190815260200160002060405180608001604052908160008201548152602001600182015481526020016002820154815260200160038201548152505090506000816000015114610aab576040517f08c379a000000000000000000000000000000000000000000000000000000000815260040180806020018281038252601b8152602001807f596f7520616c72656164792070726f766520796f7572206269642e000000000081525060200191505060405180910390fd5b6000816060015111610b08576040517f08c379a0000000000000000000000000000000000000000000000000000000008152600401808060200182810382526033815260200180612a386033913960400191505060405180910390fd5b82826040516020018083815260200182805190602001908083835b60208310610b465780518252602082019150602081019050602083039250610b23565b6001836020036101000a0380198251168184511680821785525050505050509050019250505060405160208183030381529060405280519060200120816040015114610bdd576040517f08c379a000000000000000000000000000000000000000000000000000000000815260040180806020018281038252602c8152602001806129a5602c913960400191505060405180910390fd5b8281600001818152505080600c60003373ffffffffffffffffffffffffffffffffffffffff1673ffffffffffffffffffffffffffffffffffffffff16815260200190815260200160002060008201518160000155602082015181600101556040820151816002015560608201518160030155905050600d3390806001815401808255809150509060018203906000526020600020016000909192909190916101000a81548173ffffffffffffffffffffffffffffffffffffffff021916908373ffffffffffffffffffffffffffffffffffffffff16021790555050600e839080600181540180825580915050906001820390600052602060002001600090919290919091505550600b548310610dff57600b54831415610db557600c6000600a60009054906101000a900473ffffffffffffffffffffffffffffffffffffffff1673ffffffffffffffffffffffffffffffffffffffff1673ffffffffffffffffffffffffffffffffffffffff1681526020019081526020016000206001015481602001511015610db05733600a60006101000a81548173ffffffffffffffffffffffffffffffffffffffff021916908373ffffffffffffffffffffffffffffffffffffffff16021790555082600b819055505b610dfe565b33600a60006101000a81548173ffffffffffffffffffffffffffffffffffffffff021916908373ffffffffffffffffffffffffffffffffffffffff16021790555082600b819055505b5b505050565b600260009054906101000a900473ffffffffffffffffffffffffffffffffffffffff1673ffffffffffffffffffffffffffffffffffffffff16639d36788e6008546040518263ffffffff1660e01b81526004018082815260200191505060206040518083038186803b158015610e7957600080fd5b505afa158015610e8d573d6000803e3d6000fd5b505050506040513d6020811015610ea357600080fd5b8101908080519060200190929190505050610f26576040517f08c379a00000000000000000000000000000000000000000000000000000000081526004018080602001828103825260138152602001807f546f6b656e20646f65736e27742065786973740000000000000000000000000081525060200191505060405180910390fd5b6000809054906101000a900473ffffffffffffffffffffffffffffffffffffffff1673ffffffffffffffffffffffffffffffffffffffff163373ffffffffffffffffffffffffffffffffffffffff1614610f7f57600080fd5b600380811115610f8b57fe5b600560009054906101000a900460ff166003811115610fa657fe5b14610ffc576040517f08c379a0000000000000000000000000000000000000000000000000000000008152600401808060200182810382526033815260200180612bbd6033913960400191505060405180910390fd5b600454421115611074576040517f08c379a00000000000000000000000000000000000000000000000000000000081526004018080602001828103825260168152602001807f41756374696f6e20616c726561647920656e6465642e0000000000000000000081525060200191505060405180910390fd5b600f60009054906101000a900460ff16156110da576040517f08c379a0000000000000000000000000000000000000000000000000000000008152600401808060200182810382526023815260200180612acf6023913960400191505060405180910390fd5b600073ffffffffffffffffffffffffffffffffffffffff16600960009054906101000a900473ffffffffffffffffffffffffffffffffffffffff1673ffffffffffffffffffffffffffffffffffffffff161461119e576040517f08c379a00000000000000000000000000000000000000000000000000000000081526004018080602001828103825260198152602001807f57696e6e657220616c72656164792064657465726d696e65640000000000000081525060200191505060405180910390fd5b600b54600360009054906101000a900473ffffffffffffffffffffffffffffffffffffffff1673ffffffffffffffffffffffffffffffffffffffff166370a08231600a60009054906101000a900473ffffffffffffffffffffffffffffffffffffffff166040518263ffffffff1660e01b8152600401808273ffffffffffffffffffffffffffffffffffffffff1673ffffffffffffffffffffffffffffffffffffffff16815260200191505060206040518083038186803b15801561126257600080fd5b505afa158015611276573d6000803e3d6000fd5b505050506040513d602081101561128c57600080fd5b8101908080519060200190929190505050101580156113dc5750600b54600360009054906101000a900473ffffffffffffffffffffffffffffffffffffffff1673ffffffffffffffffffffffffffffffffffffffff1663dd62ed3e600a60009054906101000a900473ffffffffffffffffffffffffffffffffffffffff16306040518363ffffffff1660e01b8152600401808373ffffffffffffffffffffffffffffffffffffffff1673ffffffffffffffffffffffffffffffffffffffff1681526020018273ffffffffffffffffffffffffffffffffffffffff1673ffffffffffffffffffffffffffffffffffffffff1681526020019250505060206040518083038186803b15801561139e57600080fd5b505afa1580156113b2573d6000803e3d6000fd5b505050506040513d60208110156113c857600080fd5b810190808051906020019092919050505010155b1561176b57600360009054906101000a900473ffffffffffffffffffffffffffffffffffffffff1673ffffffffffffffffffffffffffffffffffffffff166323b872dd600a60009054906101000a900473ffffffffffffffffffffffffffffffffffffffff16600160009054906101000a900473ffffffffffffffffffffffffffffffffffffffff16600b546040518463ffffffff1660e01b8152600401808473ffffffffffffffffffffffffffffffffffffffff1673ffffffffffffffffffffffffffffffffffffffff1681526020018373ffffffffffffffffffffffffffffffffffffffff1673ffffffffffffffffffffffffffffffffffffffff1681526020018281526020019350505050602060405180830381600087803b15801561150457600080fd5b505af1158015611518573d6000803e3d6000fd5b505050506040513d602081101561152e57600080fd5b8101908080519060200190929190505050506001600f60006101000a81548160ff0219169083151502179055507fdaec4582d5d9595688c8c98545fdd1c696d41c6aeaeb636737e84ed2f5c00eda600a60009054906101000a900473ffffffffffffffffffffffffffffffffffffffff16600b54604051808373ffffffffffffffffffffffffffffffffffffffff1673ffffffffffffffffffffffffffffffffffffffff1681526020018281526020019250505060405180910390a1600260009054906101000a900473ffffffffffffffffffffffffffffffffffffffff1673ffffffffffffffffffffffffffffffffffffffff166323b872dd30600a60009054906101000a900473ffffffffffffffffffffffffffffffffffffffff166008546040518463ffffffff1660e01b8152600401808473ffffffffffffffffffffffffffffffffffffffff1673ffffffffffffffffffffffffffffffffffffffff1681526020018373ffffffffffffffffffffffffffffffffffffffff1673ffffffffffffffffffffffffffffffffffffffff1681526020018281526020019350505050600060405180830381600087803b1580156116eb57600080fd5b505af11580156116ff573d6000803e3d6000fd5b50505050600a60009054906101000a900473ffffffffffffffffffffffffffffffffffffffff16600960006101000a81548173ffffffffffffffffffffffffffffffffffffffff021916908373ffffffffffffffffffffffffffffffffffffffff160217905550611d58565b73__InsertionSorter_______________________63d958235a600e600d6040518363ffffffff1660e01b8152600401808381526020018281526020019250505060006040518083038186803b1580156117c457600080fd5b505af41580156117d8573d6000803e3d6000fd5b5050505060006001600d805490500390505b60008110611d56576000600d828154811061180157fe5b9060005260206000200160009054906101000a900473ffffffffffffffffffffffffffffffffffffffff1690506000600e838154811061183d57fe5b9060005260206000200154905080600360009054906101000a900473ffffffffffffffffffffffffffffffffffffffff1673ffffffffffffffffffffffffffffffffffffffff166370a08231846040518263ffffffff1660e01b8152600401808273ffffffffffffffffffffffffffffffffffffffff1673ffffffffffffffffffffffffffffffffffffffff16815260200191505060206040518083038186803b1580156118ea57600080fd5b505afa1580156118fe573d6000803e3d6000fd5b505050506040513d602081101561191457600080fd5b810190808051906020019092919050505010158015611a40575080600360009054906101000a900473ffffffffffffffffffffffffffffffffffffffff1673ffffffffffffffffffffffffffffffffffffffff1663dd62ed3e84306040518363ffffffff1660e01b8152600401808373ffffffffffffffffffffffffffffffffffffffff1673ffffffffffffffffffffffffffffffffffffffff1681526020018273ffffffffffffffffffffffffffffffffffffffff1673ffffffffffffffffffffffffffffffffffffffff1681526020019250505060206040518083038186803b158015611a0257600080fd5b505afa158015611a16573d6000803e3d6000fd5b505050506040513d6020811015611a2c57600080fd5b810190808051906020019092919050505010155b15611d4657600360009054906101000a900473ffffffffffffffffffffffffffffffffffffffff1673ffffffffffffffffffffffffffffffffffffffff166323b872dd83600160009054906101000a900473ffffffffffffffffffffffffffffffffffffffff16846040518463ffffffff1660e01b8152600401808473ffffffffffffffffffffffffffffffffffffffff1673ffffffffffffffffffffffffffffffffffffffff1681526020018373ffffffffffffffffffffffffffffffffffffffff1673ffffffffffffffffffffffffffffffffffffffff1681526020018281526020019350505050602060405180830381600087803b158015611b4457600080fd5b505af1158015611b58573d6000803e3d6000fd5b505050506040513d6020811015611b6e57600080fd5b8101908080519060200190929190505050506001600f60006101000a81548160ff0219169083151502179055507fdaec4582d5d9595688c8c98545fdd1c696d41c6aeaeb636737e84ed2f5c00eda8282604051808373ffffffffffffffffffffffffffffffffffffffff1673ffffffffffffffffffffffffffffffffffffffff1681526020018281526020019250505060405180910390a1600260009054906101000a900473ffffffffffffffffffffffffffffffffffffffff1673ffffffffffffffffffffffffffffffffffffffff166323b872dd30846008546040518463ffffffff1660e01b8152600401808473ffffffffffffffffffffffffffffffffffffffff1673ffffffffffffffffffffffffffffffffffffffff1681526020018373ffffffffffffffffffffffffffffffffffffffff1673ffffffffffffffffffffffffffffffffffffffff1681526020018281526020019350505050600060405180830381600087803b158015611ce557600080fd5b505af1158015611cf9573d6000803e3d6000fd5b5050505081600960006101000a81548173ffffffffffffffffffffffffffffffffffffffff021916908373ffffffffffffffffffffffffffffffffffffffff160217905550505050611d58565b50508080600190039150506117ea565b505b565b600260009054906101000a900473ffffffffffffffffffffffffffffffffffffffff1673ffffffffffffffffffffffffffffffffffffffff16639d36788e6008546040518263ffffffff1660e01b81526004018082815260200191505060206040518083038186803b158015611dcf57600080fd5b505afa158015611de3573d6000803e3d6000fd5b505050506040513d6020811015611df957600080fd5b8101908080519060200190929190505050611e7c576040517f08c379a00000000000000000000000000000000000000000000000000000000081526004018080602001828103825260138152602001807f546f6b656e20646f65736e27742065786973740000000000000000000000000081525060200191505060405180910390fd5b60006003811115611e8957fe5b600560009054906101000a900460ff166003811115611ea457fe5b148015611ec7575060016003811115611eb957fe5b816003811115611ec557fe5b145b80611f19575060016003811115611eda57fe5b600560009054906101000a900460ff166003811115611ef557fe5b148015611f18575060026003811115611f0a57fe5b816003811115611f1657fe5b145b5b80611f6a575060026003811115611f2c57fe5b600560009054906101000a900460ff166003811115611f4757fe5b148015611f695750600380811115611f5b57fe5b816003811115611f6757fe5b145b5b611fdc576040517f08c379a00000000000000000000000000000000000000000000000000000000081526004018080602001828103825260118152602001807f57726f6e67207374617465206f7264657200000000000000000000000000000081525060200191505060405180910390fd5b6000809054906101000a900473ffffffffffffffffffffffffffffffffffffffff1673ffffffffffffffffffffffffffffffffffffffff163373ffffffffffffffffffffffffffffffffffffffff161461203557600080fd5b6000600381111561204257fe5b600560009054906101000a900460ff16600381111561205d57fe5b14156123de573073ffffffffffffffffffffffffffffffffffffffff16600260009054906101000a900473ffffffffffffffffffffffffffffffffffffffff1673ffffffffffffffffffffffffffffffffffffffff1663081812fc6008546040518263ffffffff1660e01b81526004018082815260200191505060206040518083038186803b1580156120ef57600080fd5b505afa158015612103573d6000803e3d6000fd5b505050506040513d602081101561211957600080fd5b810190808051906020019092919050505073ffffffffffffffffffffffffffffffffffffffff1614612196576040517f08c379a0000000000000000000000000000000000000000000000000000000008152600401808060200182810382526033815260200180612a6b6033913960400191505060405180910390fd5b600260009054906101000a900473ffffffffffffffffffffffffffffffffffffffff1673ffffffffffffffffffffffffffffffffffffffff166323b872dd33306008546040518463ffffffff1660e01b8152600401808473ffffffffffffffffffffffffffffffffffffffff1673ffffffffffffffffffffffffffffffffffffffff1681526020018373ffffffffffffffffffffffffffffffffffffffff1673ffffffffffffffffffffffffffffffffffffffff1681526020018281526020019350505050600060405180830381600087803b15801561227557600080fd5b505af1158015612289573d6000803e3d6000fd5b505050503073ffffffffffffffffffffffffffffffffffffffff16600260009054906101000a900473ffffffffffffffffffffffffffffffffffffffff1673ffffffffffffffffffffffffffffffffffffffff16636352211e6008546040518263ffffffff1660e01b81526004018082815260200191505060206040518083038186803b15801561231957600080fd5b505afa15801561232d573d6000803e3d6000fd5b505050506040513d602081101561234357600080fd5b810190808051906020019092919050505073ffffffffffffffffffffffffffffffffffffffff16146123dd576040517f08c379a000000000000000000000000000000000000000000000000000000000815260040180806020018281038252601e8152602001807f636f6e7472616374206973206e6f74206f776e6572206f6620746f6b656e000081525060200191505060405180910390fd5b5b80600560006101000a81548160ff021916908360038111156123fc57fe5b021790555050565b60065481565b60075481565b600560009054906101000a900460ff1681565b600260009054906101000a900473ffffffffffffffffffffffffffffffffffffffff1673ffffffffffffffffffffffffffffffffffffffff16639d36788e6008546040518263ffffffff1660e01b81526004018082815260200191505060206040518083038186803b15801561249857600080fd5b505afa1580156124ac573d6000803e3d6000fd5b505050506040513d60208110156124c257600080fd5b8101908080519060200190929190505050612545576040517f08c379a00000000000000000000000000000000000000000000000000000000081526004018080602001828103825260138152602001807f546f6b656e20646f65736e27742065786973740000000000000000000000000081525060200191505060405180910390fd5b6001600381111561255257fe5b600560009054906101000a900460ff16600381111561256d57fe5b146125c3576040517f08c379a000000000000000000000000000000000000000000000000000000000815260040180806020018281038252602b815260200180612af2602b913960400191505060405180910390fd5b60045442111561263b576040517f08c379a00000000000000000000000000000000000000000000000000000000081526004018080602001828103825260168152602001807f41756374696f6e20616c726561647920656e6465642e0000000000000000000081525060200191505060405180910390fd5b600f60009054906101000a900460ff16156126a1576040517f08c379a0000000000000000000000000000000000000000000000000000000008152600401808060200182810382526023815260200180612acf6023913960400191505060405180910390fd5b600073ffffffffffffffffffffffffffffffffffffffff16600960009054906101000a900473ffffffffffffffffffffffffffffffffffffffff1673ffffffffffffffffffffffffffffffffffffffff1614612765576040517f08c379a00000000000000000000000000000000000000000000000000000000081526004018080602001828103825260198152602001807f57696e6e657220616c72656164792064657465726d696e65640000000000000081525060200191505060405180910390fd5b60208060ff16146127de576040517f08c379a000000000000000000000000000000000000000000000000000000000815260040180806020018281038252601a8152602001807f486173682073686f756c642062652066697865642073697a652100000000000081525060200191505060405180910390fd5b6127e6612979565b600c60003373ffffffffffffffffffffffffffffffffffffffff1673ffffffffffffffffffffffffffffffffffffffff1681526020019081526020016000206040518060800160405290816000820154815260200160018201548152602001600282015481526020016003820154815250509050600754816060015111156128b9576040517f08c379a0000000000000000000000000000000000000000000000000000000008152600401808060200182810382526036815260200180612a026036913960400191505060405180910390fd5b4281602001818152505081816040018181525050600181606001510181606001818152505080600c60003373ffffffffffffffffffffffffffffffffffffffff1673ffffffffffffffffffffffffffffffffffffffff168152602001908152602001600020600082015181600001556020820151816001015560408201518160020155606082015181600301559050505050565b60085481565b600960009054906101000a900473ffffffffffffffffffffffffffffffffffffffff1681565b604051806080016040528060008152602001600081526020016000801916815260200160008152509056fe50726f766520626964206661696c65642e20496e76616c69642062696456616c756520616e642053616c742e4269642076616c7565206e6565647320746f20626520626967676572207468656e206d696e696d616c4269645072696365596f757220746f74616c206269647320636f756e746572206973206f7665722e205361766564206f6e6c79206c617465737420626964596f75206d757374206d616b6520626964206174206c6561737420312074696d652c206265666f72652070726f766520697421596f75206d75737420617070726f76652061756374696f6e20746f206f706572617465207769746820796f757220746f6b656e5468652062616c616e6365206f66206d73672e73656e646572206973206c657373207468656e206269642076616c75652161756374696f6e456e642068617320616c7265616479206265656e2063616c6c65642e41756374696f6e20646f65736e27742061636365707420626964732061742074686973206d6f6d656e742e41756374696f6e20646f65736e277420616c6c6f772070726f766520626964732061742074686973206d6f6d656e742e546865207573657220646964206e6f7420616c6c6f772074686520636f6e747261637420746f207472616e73666572207468652076616c7565206f66207468652062657420746f207468652062656e6566696369617279206966206865206265636f6d6573207468652077696e6e657241756374696f6e20646f65736e277420616c6c6f772072657665616c2077696e6e65722061742074686973206d6f6d656e742ea265627a7a7231582077b171a3c4ac5532a5ac93368eb342e1119627d682770d9a254f1bfe8dcfee1a64736f6c63430005100032",
  "source": "// We will be using Solidity version 0.5.3\r\npragma solidity 0.5.16;\r\n\r\n// Importing OpenZeppelin's SafeMath Implementation\r\nimport \"./SafeMath.sol\";\r\nimport \"./Diamond.sol\";  // Token Contract\r\nimport \"./ArtERC20.sol\"; // ERC20 contract\r\nimport \"./InsertionSorter.sol\";\r\n\r\ncontract HashedClosedAuction {\r\n\r\n    // * Data Structures *\r\n    // -----------------------\r\n    // Auction possible states\r\n    enum AuctionStates {Init, AcceptBids, ProveBids, RevealWinner}\r\n\r\n    // Bid Data structure\r\n    struct BidData {\r\n        // We store bid value only at `ProveBids` stage to determine user with highest bid.\r\n        uint256 provedBidValue; \r\n        // We store timestamp to determine first highest bidder at `ProveBids` stage if bids values is equal.\r\n        uint bidTimestamp;\r\n        // Hash of bid value and salt. Bidder generates it by itself.\r\n        bytes32 bidHash;\r\n        // Count of bids made by this bidder\r\n        uint bidsCounter;\r\n    }\r\n\r\n    // * Auction parameters *\r\n    // -----------------------\r\n    address private owner;  // ART Token owner\r\n    address payable public beneficiary;  // \"\"\r\n    // Parameters of the auction. Times are either\r\n    // absolute unix timestamps (seconds since 1970-01-01)\r\n    // or time periods in seconds.\r\n    Diamond private token;\r\n    ArtERC20Token private erc20Token;  // ERC20 Token used for make bids.\r\n    uint public auctionEndTime;\r\n    AuctionStates public auctionState; // Current auction state\r\n    uint public auctionMinimalBidPrice;  // Minimal bid price.\r\n    uint256 public auctionMaximumBidOverwriteCount;  // Maximal bid overwrite count for single bidder\r\n\r\n    // ART Token parameters for check existing of it and next transfer ownership to winner, when auction finished\r\n    uint256 public token_id;\r\n\r\n    // * Different variables *\r\n    // -----------------------\r\n\r\n    // Address of auction's winner.\r\n    // It will update when auction becomes to `RevealWinner` state .\r\n    // Defaults to zero address in the blockchain (0x000000...000).\r\n    address public winner;\r\n    \r\n    // When auction comes to `ProveBids` state, we will save highest proved bid to this variable\r\n    address private provedUserWithHighestBid;\r\n    uint private provedHighestBid;\r\n\r\n    // Mapping Bidder address to his bid.\r\n    // At `AcceptBids` state we store info about bid to this mapping.\r\n    // At `ProveBids` state we are using this data to validate bids.\r\n    mapping(address => BidData) private biddersBidData;\r\n    \r\n    // Array of users that successfully proved their bids at `ProveBids` auction stage.\r\n    address[] private usersBidsProved;\r\n    uint256[] private usersBidsProvedValues;\r\n    \r\n    \r\n    // Set to true at the end, disallows any change.\r\n    // By default initialized to `false`.\r\n    bool public is_ended;\r\n\r\n    // Events that will be emitted on changes.\r\n    event AuctionEnded(address winner, uint amount);\r\n\r\n    // The following is a so-called natspec comment,\r\n    // recognizable by the three slashes.\r\n    // It will be shown when the user is asked to\r\n    // confirm a transaction.\r\n\r\n    /// Create a simple auction with `_biddingTime`\r\n    /// seconds bidding time on behalf of the\r\n    /// beneficiary address `_beneficiary`.\r\n    constructor(\r\n        ArtERC20Token _erc20Token,\r\n        Diamond _token,\r\n        address _owner,\r\n        uint _biddingTime,\r\n        address payable _beneficiary,\r\n        uint _startPrice,\r\n        uint256 _token_id,\r\n        uint256 _auctionMaximumBidOverwriteCount\r\n            ) public {\r\n\r\n        token = _token;\r\n        erc20Token = _erc20Token;\r\n        beneficiary = _beneficiary;\r\n        auctionEndTime = now + _biddingTime;\r\n        auctionMinimalBidPrice = _startPrice;\r\n        owner = _owner;\r\n        token_id = _token_id;\r\n        auctionMaximumBidOverwriteCount = _auctionMaximumBidOverwriteCount;\r\n        auctionState = AuctionStates.Init;\r\n    }\r\n\r\n    modifier tokenExist {\r\n            require(token.isExists(token_id), \"Token doesn't exist\");\r\n        _;\r\n    }\r\n\r\n    function bid(bytes32 hash) tokenExist public {\r\n        // Revert the call if auction bids accept period is over.\r\n        require(auctionState == AuctionStates.AcceptBids, \"Auction doesn't accept bids at this moment.\");\r\n        // Revert the call if the auction is expired\r\n        require(now <= auctionEndTime,\"Auction already ended.\");\r\n        require(!is_ended, \"auctionEnd has already been called.\");\r\n        \r\n        // Revert the call if winner already determined\r\n        require(winner == address(0), \"Winner already determined\");\r\n        \r\n        // Revert the call if passed hash is not needed size\r\n        require(hash.length == 32, \"Hash should be fixed size!\");\r\n        \r\n        BidData memory senderBidData = biddersBidData[msg.sender];\r\n        // Revert the call if bids overwrite counter is over for current bidder\r\n        require(senderBidData.bidsCounter <= auctionMaximumBidOverwriteCount, \"Your total bids counter is over. Saved only latest bid\");\r\n\r\n        senderBidData.bidTimestamp = now;\r\n        senderBidData.bidHash = hash;\r\n        senderBidData.bidsCounter = senderBidData.bidsCounter + 1;\r\n         // Write current bid to biddersBidData\r\n        biddersBidData[msg.sender] = senderBidData;\r\n\r\n    }\r\n    \r\n    // Prove bid at `ProveBids` stage of auction.\r\n    function proveBid(uint256 bidValue, string memory salt) tokenExist public {\r\n        // Revert the call if auction bids prove period is over.\r\n        require(auctionState == AuctionStates.ProveBids, \"Auction doesn't allow prove bids at this moment.\");\r\n        \r\n        // Revert the call if the auction is expired\r\n        require(now <= auctionEndTime,\"Auction already ended.\");\r\n        require(!is_ended, \"auctionEnd has already been called.\");\r\n         \r\n        // Revert the call if winner already determined\r\n        require(winner == address(0), \"Winner already determined\");\r\n\r\n        // Revert the call if bid less then minimal bid for this auction\r\n        require(bidValue>=auctionMinimalBidPrice, \"Bid value needs to be bigger then minimalBidPrice\");\r\n\r\n        // Revert the call if user's balance of specified ERC20 Token less then bid value\r\n        require(erc20Token.balanceOf(msg.sender)>=bidValue, \r\n            \"The balance of msg.sender is less then bid value!\");\r\n            \r\n        // Revert the call if user did not allow the contract to transfer the value of the bet to the beneficiary if he becomes the winner\r\n        require(erc20Token.allowance(msg.sender, address(this)) >= bidValue,\r\n            \"The user did not allow the contract to transfer the value of the bet to the beneficiary if he becomes the winner\");\r\n\r\n        BidData memory senderBidData = biddersBidData[msg.sender];\r\n        // Revert the call if user already proved his bid.\r\n        require(senderBidData.provedBidValue == 0, \"You already prove your bid.\");\r\n        // Revert the call if user doesn't make any bids in this auction, but tries prove non-existent bid.\r\n        require(senderBidData.bidsCounter > 0, \"You must make bid at least 1 time, before prove it!\");\r\n        // Revert the call if user bidValue and salt doesn't provide same hash for hash of bid made at `AcceptBids` auction stage\r\n        require(senderBidData.bidHash == keccak256(abi.encodePacked(bidValue, salt)), \"Prove bid failed. Invalid bidValue and Salt.\");\r\n\r\n        // Save bid value to db to determine next winner if contract can't transfer tokens to beneficiary from winner balance at `RevealWinner` stage.\r\n        senderBidData.provedBidValue = bidValue;\r\n        biddersBidData[msg.sender] = senderBidData;\r\n        usersBidsProved.push(msg.sender);\r\n        usersBidsProvedValues.push(bidValue);\r\n        // Check current proved highest bidder and change it if bid timestamp < bid timestamp of current highest bidder and bidValue >= provedHighestBid\r\n        if (bidValue>=provedHighestBid){\r\n            if (bidValue == provedHighestBid){\r\n                if (senderBidData.bidTimestamp < biddersBidData[provedUserWithHighestBid].bidTimestamp) {\r\n                    provedUserWithHighestBid = msg.sender;\r\n                    provedHighestBid = bidValue;\r\n                }\r\n            } else {\r\n                provedUserWithHighestBid = msg.sender;\r\n                provedHighestBid = bidValue;\r\n            }\r\n        }\r\n\r\n        \r\n    }\r\n\r\n    // Changes auction state. Only owner can call this function\r\n    function changeAuctionState(AuctionStates state) tokenExist public {\r\n        // Revert call if sender is not owner of token.\r\n        require(\r\n            (auctionState == AuctionStates.Init && state == AuctionStates.AcceptBids) ||\r\n            (auctionState == AuctionStates.AcceptBids && state == AuctionStates.ProveBids) ||\r\n            (auctionState == AuctionStates.ProveBids && state == AuctionStates.RevealWinner), \"Wrong state order\");  // guarantees auction order\r\n        require(msg.sender == owner);\r\n        if (auctionState == AuctionStates.Init){\r\n            require(token.getApproved(token_id) == address(this), \"You must approve auction to operate with your token\");\r\n            token.transferFrom(msg.sender, address(this), token_id);  // guarantee that owner can't remove approval after init stage\r\n            require(token.ownerOf(token_id) == address(this), \"contract is not owner of token\");\r\n        }\r\n\r\n        auctionState = state;\r\n    }\r\n    \r\n\r\n    // Reveal winner at `RevealWinner` auction stage. Only owner can call this function\r\n    function revealWinner() tokenExist public {\r\n        // Revert call if sender is not owner of token.\r\n        require(msg.sender == owner);\r\n        // Revert the call if auction bids prove period is over.\r\n        require(auctionState == AuctionStates.RevealWinner, \"Auction doesn't allow reveal winner at this moment.\");\r\n        \r\n        // Revert the call if the auction is expired\r\n        require(now <= auctionEndTime,\"Auction already ended.\");\r\n        require(!is_ended, \"auctionEnd has already been called.\");\r\n         \r\n        // Revert the call if winner already determined\r\n        require(winner == address(0), \"Winner already determined\");\r\n        \r\n        if(erc20Token.balanceOf(provedUserWithHighestBid)>=provedHighestBid \r\n            && erc20Token.allowance(provedUserWithHighestBid, address(this))>=provedHighestBid)\r\n        {\r\n            // \"Shut up and take my money!\"\r\n            erc20Token.transferFrom(provedUserWithHighestBid, beneficiary, provedHighestBid);\r\n            // Make Auction Ended\r\n            is_ended = true;\r\n            emit AuctionEnded(provedUserWithHighestBid, provedHighestBid);\r\n            // Transfer ownership\r\n            token.transferFrom(address(this), provedUserWithHighestBid, token_id);\r\n            winner = provedUserWithHighestBid;\r\n            return();\r\n            \r\n        } \r\n         else {\r\n            InsertionSorter.sort(usersBidsProvedValues, usersBidsProved);\r\n            \r\n            for(uint i=usersBidsProved.length-1; i>=0; i--){\r\n                address next_proved_winner = usersBidsProved[i];\r\n                uint next_proved_winner_bid = usersBidsProvedValues[i];\r\n                if(erc20Token.balanceOf(next_proved_winner)>=next_proved_winner_bid \r\n                    && erc20Token.allowance(next_proved_winner, address(this))>=next_proved_winner_bid)\r\n                {\r\n                    // \"Shut up and take my money!\"\r\n                    erc20Token.transferFrom(next_proved_winner, beneficiary, next_proved_winner_bid);\r\n                    // Make Auction Ended\r\n                    is_ended = true;\r\n                    emit AuctionEnded(next_proved_winner, next_proved_winner_bid);\r\n                    // Transfer ownership\r\n                    token.transferFrom(address(this), next_proved_winner, token_id);\r\n                    winner = next_proved_winner;\r\n                    return();\r\n                    \r\n                } \r\n            }\r\n        }\r\n\r\n        \r\n    }\r\n\r\n\r\n\r\n}",
  "sourcePath": "D:/diamondsPlatform/compile/contracts/ClosedAuction.sol",
  "compiler": {
    "name": "solc",
    "version": "0.5.16+commit.9c3226ce.Emscripten.clang"
  },
  "schemaVersion": "3.3.3",
  "updatedAt": "2021-11-11T01:22:50.858Z",
  "devdoc": {
    "methods": {}
  },
  "userdoc": {
    "methods": {
      "constructor": "Create a simple auction with `_biddingTime` seconds bidding time on behalf of the beneficiary address `_beneficiary`."
    }
  }
}